{
  "contractName": "NFT",
  "abi": [
    {
      "inputs": [
        {
          "internalType": "address",
          "name": "_owner",
          "type": "address"
        }
      ],
      "name": "getBalance",
      "outputs": [
        {
          "internalType": "uint256",
          "name": "",
          "type": "uint256"
        }
      ],
      "stateMutability": "view",
      "type": "function",
      "constant": true
    }
  ],
  "bytecode": "0x608060405234801561001057600080fd5b50610172806100206000396000f3fe608060405234801561001057600080fd5b506004361061002b5760003560e01c8063f8b2cb4f14610030575b600080fd5b61004a60048036038101906100459190610096565b610060565b60405161005791906100ce565b60405180910390f35b60008173ffffffffffffffffffffffffffffffffffffffff16319050919050565b60008135905061009081610125565b92915050565b6000602082840312156100a857600080fd5b60006100b684828501610081565b91505092915050565b6100c88161011b565b82525050565b60006020820190506100e360008301846100bf565b92915050565b60006100f4826100fb565b9050919050565b600073ffffffffffffffffffffffffffffffffffffffff82169050919050565b6000819050919050565b61012e816100e9565b811461013957600080fd5b5056fea264697066735822122099566084b050bce3f89641aaf0d236111002362feeb7ac63ad0dbd65248e626664736f6c63430008000033",
  "immutableReferences": {},
  "source": "// SPDX-License-Identifier: MIT\npragma solidity ^0.8.0;\n\ncontract NFT {\n\n    function getBalance(address _owner) public view returns (uint256) {\n        return _owner.balance;\n    }\n}",
  "sourcePath": "/Users/apple/Desktop/web3-tutorials/01-interacting-with-smart-contracts/truffle/contracts/NFT.sol",
  "compiler": {
    "name": "solc",
    "version": "0.8.0+commit.c7dfd78e.Emscripten.clang"
  },
  "schemaVersion": "3.4.6",
  "updatedAt": "2022-04-09T07:54:00.778Z",
  "networkType": "ethereum",
  "devdoc": {
    "kind": "dev",
    "methods": {},
    "version": 1
  },
  "userdoc": {
    "kind": "user",
    "methods": {},
    "version": 1
  }
}